:100000000C947A010C94B90A0C94920A0C94040B87
:100010000C94040B0C94040B0C94A2010C94A201FC
:100020000C94A2010C94A2010C94A2010C94A201C4
:100030000C94A2010C94E00A0C94A2010C94A2016D
:100040000C94480A0C94A2010C94160A0C94F00922
:100050000C94A2010C94A2010C94A2010C94A20194
:100060000C94A2010C94A20153656E64696E672022
:10007000636F6E6E656374207061636B65740050AE
:1000800061636B6574206E6F742073656E740050CD
:1000900061636B65742073656E740053656E64698B
:1000A0006E67205075626C697368207061636B6560
:1000B000740000000000240027002A00000000084F
:1000C000000201000003040700000000000000001F
:1000D000526573657474696E67204D6F64656D0059
:1000E0004D51545420496E697469616C697A650098
:1000F00047534D20496E697469616C697A65004D9A
:100100006F746F7220496E697469616C697A6500F9
:1001100054696D657220496E697469616C697A65AC
:1001200000496E697469616C6973696E6700534D4B
:10013000415254205741544552204D455445522078
:100140002856312E303029004E6F7420636C6F7347
:100150006564204E6F74206F70656E656400446F37
:100160006F7220697320436C6F73656400446F6F16
:1001700072206973204F70656E656400556E616210
:100180006C6520746F20636F6E6E65637420746F8E
:1001900020736572766572004572726F7220696EA7
:1001A000206272696E67696E672075702077697268
:1001B000656C65737320636F6E6E656374696F6ED3
:1001C000004572726F722073657474696E67207473
:1001D00068652041504E005374617274696E7420DA
:1001E00054435020636F6E6E656374696F6E004296
:1001F00049505F5374617465203D3E200052657321
:10020000706E7365206E6F742072656376696564C5
:1002100000526573706E73652072656376696564FC
:10022000004A75737420776F6B65207570000D0A36
:10023000456E74657220696E746F20736C656570AD
:10024000206D6F64650052696E6720496E74657237
:1002500072757074206465746563746564005661BA
:100260006C436F6D6D616E64203D3E2000544350C1
:10027000436F6E436E7472203D3E2000546F746174
:100280006C69736572203D3E200050756C73654348
:100290006F756E746572203D3E200032320032313F
:1002A00000313200313100496E206D61696E203DB0
:1002B0003E2000000000002300260029000000006E
:1002C00000250028002B0004040404040404040294
:1002D00002020202020303030303030102040810E3
:1002E00020408001020408102001020408102000B0
:1002F0007C0B951211241FBECFEFD8E0DEBFCDBF1F
:1003000013E0A0E0B1E0E0E6FCE202C005900D924F
:10031000A23EB107D9F725E0A2EEB3E001C01D92DD
:10032000AA3EB207E1F711E0C9E7D1E004C0219786
:10033000FE010E941C13C837D107C9F70E94270C81
:100340000C9423160C94000083B78E7F83BF109209
:100350005804809165048F5F8093650480915404F4
:1003600090915504A0915604B09157048F39964846
:10037000A140B10598F48091540490915504A09146
:100380005604B09157040196A11DB11D80935404E9
:1003900090935504A0935604B0935704809154044D
:1003A00090915504A0915604B0915704803A964814
:1003B000A140B10540F010925404109255041092DF
:1003C0005604109257040895AF92BF92CF92DF92D5
:1003D000EF92FF920F931F93CF93DF936C017B01FA
:1003E0008B01040F151FEB015E01AE18BF08C0178B
:1003F000D10759F06991D601ED91FC910190F081FE
:10040000E02DC6010995892B79F7C501DF91CF91C0
:100410001F910F91FF90EF90DF90CF90BF90AF9022
:100420000895FC01538D448D252F30E0842F90E0FA
:10043000821B930B541710F0CF96089501970895DF
:10044000FC01918D828D981761F0A28DAE0FBF2FA8
:10045000B11D5D968C91928D9F5F9F73928F90E0FE
:1004600008958FEF9FEF0895FC01918D828D98176D
:1004700031F0828DE80FF11D858D90E008958FEFAA
:100480009FEF0895FC01918D228D892F90E0805C73
:100490009F4F821B91098F73992708958EE295E0F3
:1004A0000E94420221E0892B09F420E0822F089566
:1004B00080E090E0892B29F00E944E0281110C947B
:1004C00000000895FC01A48DA80FB92FB11DA35AF7
:1004D000BF4F2C91848D90E001968F739927848F64
:1004E000A689B7892C93A089B1898C918370806487
:1004F0008C93938D848D981306C00288F389E02D28
:1005000080818F7D80830895EF92FF920F931F93D8
:10051000CF93DF93EC0181E0888F9B8D8C8D9813B6
:100520001AC0E889F989808185FF15C09FB7F894C2
:10053000EE89FF896083E889F9898081837080640E
:1005400080839FBF81E090E0DF91CF911F910F9159
:10055000FF90EF900895F62E0B8D10E00F5F1F4F68
:100560000F731127E02E8C8D8E110CC00FB607FC77
:10057000FACFE889F989808185FFF5CFCE010E9405
:100580006202F1CFEB8DEC0FFD2FF11DE35AFF4F0F
:10059000F0829FB7F8940B8FEA89FB898081806293
:1005A000CFCF0F931F93CF93DF938C01D0E0C0E0A8
:1005B000F801EC0FFD1F6491662341F08EE295E097
:1005C0000E948402892B11F02196F2CFCE01DF9197
:1005D000CF911F910F910895CF93DF93EC01888DF8
:1005E0008823B9F0AA89BB89E889F9898C9185FDAE
:1005F00003C0808186FD0DC00FB607FCF7CF8C913C
:1006000085FFF2CF808185FFEDCFCE010E9462028F
:10061000E9CFDF91CF910895833081F028F48130C4
:1006200099F08230A9F008958730A9F08830C9F098
:100630008430B1F4809180008F7D03C08091800070
:100640008F7780938000089584B58F7784BD089557
:1006500084B58F7DFBCF8091B0008F778093B00001
:1006600008958091B0008F7DF9CFCF93DF93282F2D
:1006700030E0F901E454FF4F8491F901E552FD4F58
:10068000D491F901E953FD4FC491CC23A1F081111C
:100690000E940C03EC2FF0E0EE0FFF1FED54FD4F16
:1006A000A591B491EC91ED2381E090E009F480E014
:1006B000DF91CF91089580E090E0FACF1F93CF9320
:1006C000DF93282F30E0F901E454FF4F8491F901C2
:1006D000E552FD4FD491F901E953FD4FC491CC236C
:1006E000A9F0162F81110E940C03EC2FF0E0EE0F01
:1006F000FF1FE354FD4FA591B4918FB7F894EC918F
:10070000111108C0D095DE23DC938FBFDF91CF910C
:100710001F910895DE2BF8CFCF93DF9390E0FC017B
:10072000E552FD4F249189539D4FFC01849188230C
:10073000C9F090E0880F991FFC01EE54FF4FA5917E
:10074000B491FC01E354FD4FC591D49161110DC0EA
:100750009FB7F8948C91209582238C9388812823CD
:1007600028839FBFDF91CF910895623051F49FB7E6
:10077000F8943C91822F809583238C93E8812E2BD3
:10078000EFCF8FB7F894EC912E2B2C938FBFEACF3D
:100790003FB7F8948091380490913904A0913A04BD
:1007A000B0913B0426B5A89B05C02F3F19F00196D8
:1007B000A11DB11D3FBFBA2FA92F982F8827BC01BB
:1007C000CD01620F711D811D911D42E0660F771FE3
:1007D000881F991F4A95D1F708958F929F92AF92E3
:1007E000BF92CF92DF92EF92FF924B015C010E9489
:1007F000C8036B017C010E94C8036C197D098E0936
:100800009F09683E734081059105A8F321E0821A93
:100810009108A108B10888EEC80E83E0D81EE11C3B
:10082000F11C81149104A104B10429F7FF90EF9009
:10083000DF90CF90BF90AF909F908F9008952FB78B
:10084000F89460913404709135048091360490914D
:1008500037042FBF0895089583B78E7F83BFE8982C
:100860008BE294E0909301018093000181E08093FA
:100870004B0408950895809140048823E1F380910A
:1008800040048130E1F30895209143043091440401
:100890002817390771F49091410480914204981708
:1008A00041F0E0914104F0E0EE51FC4F808190E096
:1008B00008958FEF9FEF0895EF92FF920F931F938C
:1008C000CF93DF93DC015C96ED90FC905D97E11493
:1008D000F10479F481E090E013969C938E93129743
:1008E00090E080E0DF91CF911F910F91FF90EF900A
:1008F00008955196ED91FC91529750968C91509796
:10090000982F90950FB75E962C915E97122F1270CC
:1009100021FD6095F8942081112319F1282B208363
:10092000E7012197F1F728E0462F50E0308160FF82
:100930001AC0382B3083E7012197F1F7BA0175957A
:100940006795215089F7112381F080818923808365
:100950000FBF5C968D919C910197F1F781E090E03B
:10096000C1CF2923DCCF3923E5CF9081892BEFCF6D
:1009700020914304309144042817390771F4809181
:1009800042042091410490E0805C9F4F821B9109BA
:1009900060E470E00E94C712089590E080E008953E
:1009A000209143043091440428173907B9F49091F9
:1009B000410480914204981789F0E0914104F0E0ED
:1009C000EE51FC4F80812091410430E02F5F3F4F7A
:1009D0002F7333272093410490E008958FEF9FEF0A
:1009E000089590E080E0089561E086E00E945E0353
:1009F00060E087E00E945E0361E085E00C945E03A6
:100A0000823061F460E086E00E945E0361E087E08E
:100A10000E945E0361E085E00C945E0361E086E085
:100A20000E945E0361E087E00E945E0360E0F3CF16
:100A3000DF92EF92FF920F931F93CF93DF937C018E
:100A40008C01C1E0D0E0F801D1908F01CE010E946D
:100A5000B112D81621F06D2DCE010E94B912219647
:100A6000C530D10581F7C701DF91CF911F910F915B
:100A7000FF90EF90DF900895FB0101900020E9F7CF
:100A80003197AF01461B570BDC01ED91FC910280C1
:100A9000F381E02D099468EE72E00C943C05CF934D
:100AA000DF930E94D102EC018EE295E00E944B059B
:100AB0008C0F9D1FDF91CF9108956115710511F085
:100AC0000C943C0590E080E008958F929F92AF9245
:100AD000BF920F931F93CF93DF93CDB7DEB7A1974C
:100AE0000FB6F894DEBF0FBECDBF19A2423008F496
:100AF0004AE08E010F5D1F4F842E912CB12CA12C4A
:100B0000A50194010E94DB12E62FB901CA01EA3067
:100B1000E4F4E05DD801EE938D01232B242B252BEB
:100B200079F7BD018EE295E00E945D05A1960FB6B2
:100B3000F894DEBF0FBECDBFDF91CF911F910F9113
:100B4000BF90AF909F908F900895E95CE3CFCF93D3
:100B5000DF93682F70E090E080E04AE00E94650536
:100B6000EC018EE295E00E944B058C0F9D1FDF91FA
:100B7000CF9108950F931F93CF93DF93EC010E94C1
:100B80005D058C01CE010E944B05800F911FDF9106
:100B9000CF911F910F9108952F923F924F925F92A4
:100BA0006F927F928F929F92AF92BF92CF92DF927D
:100BB000EF92FF921F93CF93DF93CDB7DEB7C4566A
:100BC000D1090FB6F894DEBF0FBECDBF3C011B01AB
:100BD0004A015901CE0101967C0184E6F701119288
:100BE0008A95E9F762E370E080E090E00E94ED030F
:100BF0008BEC95E00E944B05B3018BEC95E00E94D5
:100C0000BA05B3018EE295E00E94BA050E941F0466
:100C10002B013C0110E0D12CC12C8BEC95E00E9403
:100C2000B804892BB1F18BEC95E00E94D004F70158
:100C3000E10FF11D80831F5FB101C7010E943113D5
:100C4000892B89F08EE295E00E944202892B09F4FB
:100C50004CC08BEC95E00E94D004F701E10FF11D30
:100C600080831F5FEFCFB401C7010E943113892B2E
:100C700081F08EE295E00E944202892BC1F18BEC5B
:100C800095E00E94D004F701E10FF11D80831F5F02
:100C9000F0CF0E941F0464197509860997096A1527
:100CA0007B058C059D0508F4B8CF10E0B7018EE2F6
:100CB00095E00E94BA05812FCC59DF4F0FB6F8940A
:100CC000DEBF0FBECDBFDF91CF911F91FF90EF90A0
:100CD000DF90CF90BF90AF909F908F907F906F905C
:100CE0005F904F903F902F90089511E0DFCF12E07A
:100CF000DDCF0C945D05CF92DF92EF92FF92CF9300
:100D0000DF93EC01E6E6F4E084E6DF011D928A95CC
:100D1000E9F762E370E080E090E00E94ED038BEC85
:100D200095E00E94B804181619062CF48BEC95E097
:100D30000E94D004F4CFBE018EE295E00E94BA0575
:100D40000E941F046B017C01BE018BEC95E00E94A8
:100D5000BA05C0E08BEC95E00E94B804181619069D
:100D6000CCF48BEC95E00E94D004D1E0DC0FEC2FAA
:100D7000F0E0EA59FB4F8083682F8EE295E00E94F5
:100D8000840261EC72E086E694E00E943113CD2F7C
:100D9000892B11F50E941F046C197D098E099F098A
:100DA000683E734081059105A8F2D0E06BEE72E0D9
:100DB0008EE295E00E9479064C2F50E066E674E0E2
:100DC0008EE295E00E94E4018D2FDF91CF91FF909C
:100DD000EF90DF90CF900895D1E0E8CF8F929F926F
:100DE000AF92BF92CF92DF92EF92FF92CF93DF93B9
:100DF000EC016A017B01E6E6F4E084E6DF011D9286
:100E00008A95E9F762E370E080E090E00E94ED03EC
:100E10008BEC95E00E94B804181619062CF48BECA4
:100E200095E00E94D004F4CFBE018EE295E00E94CE
:100E3000BA050E941F044B015C01BE018BEC95E0DA
:100E40000E94790668EE72E08BEC95E00E947906CC
:100E5000C0E08BEC95E00E94B804181619068CF4DB
:100E60008BEC95E00E94D004D1E0DC0FEC2FF0E099
:100E7000EA59FB4F8083682F8EE295E00E9484023E
:100E8000CD2F0E941F04681979098A099B096C15E6
:100E90007D058E059F05E8F268E073E08EE295E03F
:100EA0000E9479064C2F50E066E674E08EE295E0F1
:100EB0000E94E40186E694E0DF91CF91FF90EF90ED
:100EC000DF90CF90BF90AF909F908F900895CF9379
:100ED000DF93CDB7DEB76E970FB6F894DEBF0FBEC7
:100EE000CDBF40ED57E060E070E084E091E00E940B
:100EF000EE0661E673E0CE0101960E94311321E017
:100F0000892B09F420E0822F6E960FB6F894DEBF8D
:100F10000FBECDBFDF91CF910895EF92FF920F9357
:100F20001F93CF93DF93813009F070C08FE190E081
:100F30009093320480933104009131041091320473
:100F4000E8012596CE01B0E0A0E080932D049093B7
:100F50002E04A0932F04B093300462E88BEC95E04C
:100F60000E945C04D0932C04C0932B0420E8E22E52
:100F7000F12CE0912B0440912C048E2F942FB7017B
:100F80000E94C71280932A04CE2FD42FD7FF02C00D
:100F9000C158DF4FCC0FCD2FCC1FDD0BD0932C04CD
:100FA000C0932B041C161D061CF4806880932A0431
:100FB00060912A048BEC95E00E945C041C161D06CF
:100FC000C4F260E08BEC95E00E945C0461E08BEC85
:100FD00095E00E945C04612F8BEC95E00E945C041C
:100FE000602F8BEC95E00E945C0467E871E08BEC6D
:100FF00095E00E945D0560E08BEC95E0DF91CF917C
:101000001F910F91FF90EF900C945C04833009F0D6
:1010100093CF8AE190E08CCFCF92DF92EF92FF9254
:101020000F931F93CF93DF93CDB7DEB7E2970FB641
:10103000F894DEBF0FBECDBF9E012F5F3F4F7901F9
:1010400092E3F90111929A95E9F7823009F092C082
:101050008DE190E0909329048093280480914F04BF
:101060008F9380914E048F9380914D048F93809144
:101070004C048F9389E691E09F938F9384E293E0F1
:101080009F938F933F932F930E944B13092E000C35
:10109000AA0BBB0B80932D0490932E04A0932F04D6
:1010A000B09330040FB6F894DEBF0FBECDBF8BE90E
:1010B00090E00E944F05B7018EE295E00E94BA05CC
:1010C00060E38BEC95E00E945C0480912D0490918C
:1010D0002E04029690932C0480932B0420E8C22EB9
:1010E000D12CE0912B0440912C048E2F942FB6012B
:1010F0000E94C71280932A040E2F142F17FF02C0DC
:1011000001581F4F000F012F001F110B10932C04CB
:1011100000932B04101611061CF4806880932A0497
:1011200060912A048BEC95E00E945C041016110675
:10113000C4F210912804609129048BEC95E00E9480
:101140005C04612F8BEC95E00E945C04B7018BEC92
:1011500095E00E945D05E2960FB6F894DEBF0FBEE3
:10116000CDBFDF91CF911F910F91FF90EF90DF9056
:10117000CF900895843009F09ACF8FE190E090935A
:10118000290480932804809159048230F9F489E479
:1011900091E09F938F938BE293E09F938F93FF92C5
:1011A000EF920E944B13092E000CAA0BBB0B8093ED
:1011B0002D0490932E04A0932F04B09330040F902D
:1011C0000F900F900F900F900F9071CF813009F01A
:1011D0006ECF89E491E09F938F9385E393E0DDCF19
:1011E0000F931F93CF93DF93C82F28EE33E04FE385
:1011F00053E065E473E087E493E00E94CC05882324
:1012000009F4EDC0C111D3C088E690E00E944F05FB
:1012100060E18BEC95E00E945C0484E090E09093A8
:1012200046048093450486E090E0909327048093E1
:1012300026048CE090E0909325048093240480E2BF
:1012400090E0909323048093220482E490E0A0E055
:10125000B0E080932D0490932E04A0932F04B093BC
:10126000300490932C0480932B0400E810E0E0916C
:101270002B0440912C048E2F942FB8010E94C7128A
:1012800080932A04CE2FD42FD7FF02C0C158DF4F3E
:10129000CC0FCD2FCC1FDD0BD0932C04C0932B048F
:1012A0001C161D061CF4806880932A0460912A0491
:1012B0008BEC95E00E945C041C161D06C4F260E0F5
:1012C0008BEC95E00E945C0464E08BEC95E00E945E
:1012D0005C0464E471E08BEC95E00E945D0563E0E2
:1012E0008BEC95E00E945C0462EC8BEC95E00E9434
:1012F0005C0460E08BEC95E00E945C046CE38BEC9A
:1013000095E00E945C04C0912604609127048BEC58
:1013100095E00E945C046C2F8BEC95E00E945C04CD
:101320006DE371E08BEC95E00E947906C091240496
:10133000609125048BEC95E00E945C046C2F8BEC93
:1013400095E00E945C0460E371E08BEC95E00E9404
:101350005D05C0912204609123048BEC95E00E940E
:101360005C046C2F8BEC95E00E945C046FE071E0F4
:101370008BEC95E00E945D056AE18BEC95E00E94A4
:101380005C0420ED37E042E553E06CE573E08AEE63
:1013900092E00E94CC058823E1F08FE890E00E9463
:1013A0004F0581E0DF91CF911F910F91089581E06A
:1013B000C13019F0C33021F483E00E948D07DCCFE7
:1013C00082E0C23019F0C430B9F684E00E940C0803
:1013D000D3CF8FE790E00E944F0580E0E3CFE2CFCC
:1013E0001F920F920FB60F9211242F933F934F939A
:1013F0005F936F937F938F939F93AF93BF93EF937D
:10140000FF938EE295E00E946202FF91EF91BF91FF
:10141000AF919F918F917F916F915F914F913F918C
:101420002F910F900FBE0F901F9018951F920F9243
:101430000FB60F9211242F938F939F93EF93FF93E7
:10144000E0913E05F0913F058081E0914405F091E7
:10145000450582FD1BC09081809147058F5F8F738A
:1014600020914805821741F0E0914705F0E0E25DE8
:10147000FA4F958F80934705FF91EF919F918F9140
:101480002F910F900FBE0F901F9018958081F4CF71
:101490001F920F920FB60F9211242F933F938F93A9
:1014A0009F93AF93BF938091340490913504A091A2
:1014B0003604B09137043091330423E0230F2D37E5
:1014C00058F50196A11DB11D209333048093340477
:1014D00090933504A0933604B09337048091380478
:1014E00090913904A0913A04B0913B040196A11D5A
:1014F000B11D8093380490933904A0933A04B093BB
:101500003B04BF91AF919F918F913F912F910F908D
:101510000FBE0F901F90189526E8230F0296A11D6D
:10152000B11DD2CF1F920F920FB60F9211242F939D
:101530003F934F935F936F937F938F939F93AF935B
:10154000BF93EF93FF93E0910201F091030109959E
:10155000FF91EF91BF91AF919F918F917F916F918B
:101560005F914F913F912F910F900FBE0F901F9061
:1015700018951F920F920FB60F9211242F933F933D
:101580004F935F936F937F938F939F93AF93BF938B
:10159000EF93FF93E0910001F09101010995FF9114
:1015A000EF91BF91AF919F918F917F916F915F91DB
:1015B0004F913F912F910F900FBE0F901F90189554
:1015C0001F920F920FB60F9211248F939F93AF9398
:1015D000BF9380913C0490913D04A0913E04B09152
:1015E0003F0490938500809384008091400491E0B3
:1015F000892780934004BF91AF919F918F910F9065
:101600000FBE0F901F9018951F920F920FB60F925A
:1016100011242F933F934F935F936F937F938F93F7
:101620009F93AF93BF93EF93FF93E0914304F091A7
:101630004404309749F0A685B7858585968D91FF3E
:1016400014C09C918923A1F4FF91EF91BF91AF91B8
:101650009F918F917F916F915F914F913F912F91CA
:101660000F900FBE0F901F9018959C91892361F7E2
:10167000A389B4899C918589809589238C938689D7
:1016800097890197F1F7608D718DA685B78555858E
:1016900038E020E0CB010197F1F7822F90E095959B
:1016A0008795282F4C91452309F02068315091F7F8
:1016B000868D81FD20958091420490E001968F7384
:1016C000992730914104381799F0A0914204B0E075
:1016D000AE51BC4F2C9380934204828D938D019721
:1016E000F1F7A389B4898C919589892B8C93ACCF20
:1016F000868D8160868FF1CF109231051092300572
:1017000088EE93E0A0E0B0E080933205909333053B
:10171000A0933405B093350528EC32E030932F05C3
:1017200020932E0525EC30E030933B0520933A05BD
:1017300024EC30E030933D0520933C0520EC30E074
:1017400030933F0520933E0521EC30E03093410576
:101750002093400522EC30E030934305209342056E
:1017600026EC30E030934505209344051092470560
:10177000109248051092490510924A051092CE0524
:101780001092CD058093CF059093D005A093D105FD
:10179000B093D2058AED92E09093CC058093CB056F
:1017A0001092E2051092E1051092E4051092E30513
:1017B0001092E6051092E5051092E8051092E705F3
:1017C0006091E9056E7F6D7F6093E90566956170B4
:1017D00081E0682780E10E945E0361E080E10E9471
:1017E0008C03EBEEF2E0E491E093DB05E7EDF2E051
:1017F000E491F0E0EE0FFF1FE354FD4F85919491CB
:101800009093DD058093DC0560E08FE00E948C03FF
:101810008091E90581FD04C061E08FE00E945E03D4
:101820008FE08093D705EAEEF2E0E491E093D805EB
:10183000E6EDF2E0E491F0E0EE0FFF1FED54FD4F16
:10184000859194919093DA058093D9050895CF936B
:10185000DF93CDB7DEB7C456D1090FB6F894DEBF1B
:101860000FBECDBF789484B5826084BD84B581609D
:1018700084BD85B5826085BD85B5816085BD80915B
:101880006E00816080936E001092810080918100D3
:1018900082608093810080918100816080938100CB
:1018A000809180008160809380008091B10084608D
:1018B0008093B1008091B00081608093B0008091EE
:1018C0007A00846080937A0080917A0082608093AD
:1018D0007A0080917A00816080937A0080917A000A
:1018E000806880937A001092C100E0913E05F091EB
:1018F0003F0512E01083E0913A05F0913B0510821C
:10190000E0913C05F0913D058FEC808310924605F7
:10191000E0914205F091430586E08083E091400527
:10192000F0914105808180618083E0914005F091D4
:101930004105808188608083E0914005F0914105F8
:10194000808180688083E0914005F091410580812D
:101950008F7D80838EE291E00E944F0581E291E0CD
:101960000E944F0568EE73E080E090E00E94ED0376
:10197000F89461E08AE00E948C0361E08BE00E94B1
:101980008C0361E08DE00E948C0361E08DE00E9499
:101990008C0360E08DE00E945E0310928000109244
:1019A00081008CED9BE0A0E0B0E080933C0490933C
:1019B0003D04A0933E04B0933F0480913C04909179
:1019C0003D04A0913E04B0913F0490938500809324
:1019D00084008091810084608093810080916F00F9
:1019E000816080936F001092400480E191E00E943A
:1019F0004F0564E670E080E090E00E94ED0362E055
:101A000083E00E948C0361E086E00E948C0361E029
:101A100087E00E948C0361E085E00E948C0362E015
:101A200088E00E948C0362E089E00E948C0361E000
:101A300084E00E948C0361E084E00E945E0380E009
:101A40000E94000510935904109248041092470414
:101A500081E080935B04109254041092550410921C
:101A60005604109257041092580481E090E00E94AE
:101A7000B1128093540482E090E00E94B1128093EE
:101A8000550483E090E00E94B1128093560484E0F4
:101A900090E00E94B1128093570480915404909179
:101AA0005504A0915604B0915704803A9648A1403D
:101AB000B10560F01092540410925504109256042F
:101AC0001092570484E594E00E9418058091540414
:101AD00090915504A0915604B091570480935004FE
:101AE00090935104A0935204B09353042091540452
:101AF000309155044091560450915704A5E0B0E050
:101B00000E94FD1260934C0470934D0480934E0428
:101B100090934F0484EA91E0909303018093020133
:101B200080916900837F886080936900E99A8FEFD4
:101B300090E00E944F0564E670E080E090E00E9433
:101B4000ED031092E6051092E5051092E40510925F
:101B5000E3051092E2051092E1058DE991E0909382
:101B6000E8058093E7059091D705963108F047C0C6
:101B70002DEB30E03093E2052093E1052BE931E0D5
:101B80003093E4052093E3052CE231E03093E60541
:101B90002093E5052091680084E0983048F031E01A
:101BA0009E3008F430E081E001C0880F3A95EAF7F2
:101BB000822B809368002DE630E0983050F02BE6C1
:101BC00030E09E3030F02CE630E0963110F030E01E
:101BD00020E03093DF052093DE05292F30E0983098
:101BE00008F031C281E001C0880F9A95EAF780932E
:101BF000E0058091E7059091E8050197F1F7809164
:101C0000E5059091E605892B49F1E0914304F091B7
:101C1000440435E0EB3CF30709F1309739F0A38930
:101C2000B4899C918589809589238C938091E9055D
:101C30008E7F8093E90510924204109241048BEC50
:101C400095E09093440480934304E091DE05F09185
:101C5000DF0580819091E005892B808364E670E048
:101C600080E090E00E94ED0362E082E00E948C033D
:101C700061E08CE00E948C0310924A0410924904A7
:101C800010924B0410926304109265041092620447
:101C900080EF90E00E944F0564E670E080E090E005
:101CA0000E94ED031092610484E090E0909346045A
:101CB0008093450480EE90E00E944F0564E670E05A
:101CC00080E090E00E94ED0310926504789480ED2E
:101CD00090E00E944F0560E08CE00E945E030E944D
:101CE0003B0461E08CE00E945E030E943B0460E0E4
:101CF0008CE00E945E030E943B040E9467071092E2
:101D0000640480917A008F7780937A0081E08093D9
:101D10005A04EAE7CE2EE3E0DE2ECE0101967C01E6
:101D2000FCE2AF2EF4E0BF2E70E0872E70E0972E1D
:101D30003324339488E00E943503892B09F090C145
:101D400064E170E080E090E00E94ED0388E00E9492
:101D50003503892B11F41092480489E00E94350361
:101D6000892B09F080C164E170E080E090E00E947E
:101D7000ED0389E00E943503892B11F4109247048A
:101D800010914804111172C180914704813009F00B
:101D900083C18DE691E00E944F0592E09093590433
:101DA00080915B04813009F080C1809159048230B8
:101DB00009F076C180E00E940005809165048230C0
:101DC00008F083C13092640480916304813011F57E
:101DD000809162048730F1F4809161048111D9C24D
:101DE0000E94F0088093610440ED57E060E070E0ED
:101DF0008FEA92E00E94EE0680916104813051F4F6
:101E00000E941F0460935D0470935E0480935F04DE
:101E10009093600480915A04813081F480915B0436
:101E2000813009F073C390915904923009F06BC36B
:101E30008093640484EA92E00E944F0580915804E4
:101E4000811189C08091540490915504A091560449
:101E5000B091570489839A83AB83BC83C7010E94E6
:101E60001805209154043091550440915604509126
:101E70005704A5E0B0E00E94FD1260934C047093FB
:101E80004D0480934E0490934F048091540490919C
:101E90005504A0915604B091570480935004909338
:101EA0005104A0935204B09353048AE892E00E9434
:101EB000D102609154047091550480915604909120
:101EC00057044AE00E9465058EE295E00E944B05AA
:101ED0008CE792E00E94D10260914C0470914D0415
:101EE00080914E0490914F044AE00E9465058EE275
:101EF00095E00E944B058DE692E00E94D102809110
:101F000065040E94A7058EE592E00E94D1028091AF
:101F10005B046AEB73E0813021F0823031F46FEBC7
:101F200073E08EE295E00E94BA0565EC73E08EE204
:101F300095E00E947906809164040E94A70565EDF2
:101F400073E08EE295E00E947906809159040E9428
:101F5000A70530925804809159048150823008F0CE
:101F600056C080916404813009F051C010925A0427
:101F70001092640480E00E94000580916504823024
:101F800010F0109265040E946707109262048EE2BE
:101F900092E00E944F05B0920101A0920001809151
:101FA00069008C7F826080936900E89A83B7817FA3
:101FB000846083BF83B7816083BF60E08DE00E944F
:101FC0005E0368EE73E080E090E00E94ED0385B769
:101FD000806685BF85B78F79806485BF889581E2EB
:101FE00092E00E944F0561E08DE00E945E0328EEC2
:101FF00033E04EE952E061EC72E084EA92E00E9444
:10200000CC0568EB7BE080E090E00E94ED038091DE
:102010004B04813061F410924B0480935A048093F6
:102020005B041092580486E492E00E944F058114EC
:10203000910409F47FCE0E944E02882309F478CEE1
:102040000E94000071CE9E3040F42850310981E09A
:1020500001C0880F2A95EAF7CACD2E503109F7CF73
:10206000309248047ACE309247048ACE1130A1F4DF
:1020700080914704811107C08EE591E00E944F05D1
:10208000109359048DCE813039F488E491E00E9498
:102090004F051092590484CEE3E0E093590480CEBA
:1020A000823008F08ACE82E086CE823009F085CE7A
:1020B00080915904823019F40E94F4047ECE81305C
:1020C00009F478CE811179CEF7CF28EE33E04EE9CE
:1020D00052E061EC72E089E992E00E94CC05813027
:1020E00009F069C080934A0481E192E00E944F05A3
:1020F00080914A04813009F067CE28EE33E04EE942
:1021000052E061EC72E082E992E00E94CC0528EE98
:1021100033E044E653E06FE673E089E892E00E9422
:10212000CC05813009F04CC080934904709049047B
:10213000F1E07F1249CE809162048823F1F048EEED
:1021400053E060E070E08BEF91E00E94EE068C01BE
:1021500060EF71E00E943113892BA9F160EF71E00B
:102160008EE295E00E94BA05709262048FEE91E0D3
:102170000E94D102872D0E94A705809162048730BA
:1021800009F404C11092630410926104823009F4CE
:10219000CBC008F089C0882309F497C0813009F4C6
:1021A000AEC0809162048B3009F00ECE0E946707AA
:1021B0001092620409CE10924A048DEF91E096CFFE
:1021C00010924904B3CF67EE71E0C8010E94311349
:1021D000892B49F067EE71E08EE295E00E94BA0526
:1021E00062E0762EC1CF6CED71E0C8010E94311320
:1021F000892B49F06CED71E08EE295E00E94BA0502
:1022000054E0752EB1CF62ED71E0C8010E94311328
:10221000892B49F062ED71E08EE295E00E94BA05EB
:1022200045E0742EA1CF67EC71E0C8010E94311324
:10223000892B49F067EC71E08EE295E00E94BA05C7
:1022400037E0732E91CF6CEB71E0C8010E9431131F
:10225000892B49F06CEB71E08EE295E00E94BA05A3
:1022600029E0722E81CF63EB71E0C8010E94311327
:10227000892B49F063EB71E08EE295E00E94BA058C
:1022800093E0792E71CF67EA71E0C8010E943113A3
:10229000892B09F469CF67EA71E08EE295E00E942C
:1022A000BA058AE0782E60CF853009F44DC08930B8
:1022B000B9F1843009F075CF48EE53E060E070E08A
:1022C00088E392E00E94EE066CCF87ED91E00E94D9
:1022D0004F0548EE53E060E070E08BE792E00E942B
:1022E000EE068FE692E00E947B06182F8130C1F443
:1022F00083E692E00E947B061093620452CF28EEA0
:1023000033E04EE952E061EC72E08AE492E00E9430
:10231000CC05813009F445CF81EC91E00E944F0556
:102320008BE0809362043DCF20E335E74EE952E035
:1023300061EC72E081E492E00E94CC05813009F406
:1023400030CF88E991E0EACF23E232E03F932F9348
:10235000E8E2F2E0FF93EF93DF92CF92FF92EF92E9
:102360000E944B1320E335E748E052E065E172E05C
:10237000C7010E94CC050FB6F894DEBF0FBECDBFDB
:10238000813009F40ECF8CE791E0C8CF309263041E
:1023900008CF813009F03ECD82E00E94F00884E051
:1023A0000E94F00881E00E94F008082F813009F0B7
:1023B0006FC0E6E6F4E024E611922A95E9F762E3BD
:1023C00070E080E090E00E94ED038BEC95E00E94CD
:1023D000B804181619062CF48BEC95E00E94D00472
:1023E000F4CF6FEA72E08EE295E00E94BA050E9497
:1023F0001F042B013C016FEA72E08BEC95E00E9418
:10240000BA0510E08BEC95E00E94B8041816190686
:1024100094F48BEC95E00E94D00422242394210EA6
:10242000E12FF0E0EA59FB4F8083682F8EE295E0C0
:102430000E948402122D0E941F04641975098609E6
:1024400097096838734181059105E0F266E973E008
:102450008EE295E00E947906412F50E06FE774E02C
:102460008EE295E00E94E40163EB73E08FE794E075
:102470000E943113892B51F466EB73E08FE794E0EF
:102480000E94311300E0892B09F002E000935C0404
:1024900087EA92E00E94D10260915C04062E000C53
:1024A000770B605D7F4F8EE295E00E9484028EE2A2
:1024B00095E00E944B0580915C04823059F4809332
:1024C0005B0430925A0480915A048111A3CC30925B
:1024D0006404A0CC813099F38111F3CF0E941F04D2
:1024E00000915D0410915E0420915F0430916004BE
:1024F000601B710B820B930B60367A4E8105910540
:1025000008F450CFE0CF81EA92E096CC823009F017
:1025100095CC80915904813029F4809364048EE92C
:1025200092E08ACC8BE992E087CC8AED92E090939E
:10253000CC058093CB0580914304909144048B5C3F
:10254000954071F4E091DE05F091DF059081809176
:10255000E0058095892380831092440410924304FF
:102560000895F999FECF92BD81BDF89A992780B55B
:102570000895262FF999FECF1FBA92BD81BD20BDC7
:102580000FB6F894FA9AF99A0FBE0196089597FB40
:10259000072E16F4009407D077FD09D00E94081387
:1025A00007FC05D03EF4909581959F4F0895709556
:1025B00061957F4F0895A1E21A2EAA1BBB1BFD0156
:1025C0000DC0AA1FBB1FEE1FFF1FA217B307E40712
:1025D000F50720F0A21BB30BE40BF50B661F771F6A
:1025E000881F991F1A9469F760957095809590954A
:1025F0009B01AC01BD01CF0108950E942213A59F4C
:10260000900DB49F900DA49F800D911D11240895ED
:10261000AA1BBB1B51E107C0AA1FBB1FA617B70708
:1026200010F0A61BB70B881F991F5A95A9F7809524
:102630009095BC01CD010895EE0FFF1F0590F49118
:10264000E02D0994A29FB001B39FC001A39F700D1C
:10265000811D1124911DB29F700D811D1124911DAA
:102660000895FB0151915523A9F0BF01DC014D9163
:1026700045174111E1F759F4CD010190002049F0CF
:102680004D9140154111C9F3FB014111EFCF81E09C
:1026900090E001970895AEE0B0E0E1E5F3E10C943D
:1026A000FA150D891E8986E08C831A8309838FEFC2
:1026B0009FE79E838D83AE01475E5F4F6F89788D64
:1026C000CE0101960E946E132F813885020F131FD1
:1026D000F80110822E96E4E00C941616ABE0B0E000
:1026E000E4E7F3E10C94EC157C013B018A01FC0169
:1026F00017821682838181FFC8C1CE0101965C01D9
:10270000F7019381F30193FD859193FF81913F013F
:10271000882309F453C1853239F493FD859193FFE1
:1027200081913F01853229F4B70190E00E945E1546
:10273000E7CF912C212C312CFFE1F31538F08B32AF
:1027400011F190F4803209F1833229F137FC3CC059
:1027500020ED280F2A3050F536FE20C08AE0989EE2
:10276000200D1124922E06C08D3291F0803371F726
:10277000689430F8F30193FD859193FF81913F01B7
:102780008111DACF21C0689431F8689432F8F2CF21
:10279000689433F8EFCF689434F8ECCFEAE02E9EDB
:1027A000200D1124222E689435F8E4CF8E3229F4BE
:1027B00036FC04C1689436F8DDCF8C3619F4689481
:1027C00037F8D8CF8836B1F2982F9F7D9554933043
:1027D000E0F08336A1F18337C1F1833509F063C09E
:1027E0002801F2E04F0E511CF801C080D180692D04
:1027F00070E036FC02C06FEF7FEFC6010E94481503
:102800004C01689437F882010AC00C5F1F4FFFE348
:10281000F98388248394912C6501E89437F833FE7A
:102820002DC0522C8114910471F5552009F468CF04
:10283000B70180E290E00E945E155A94F6CFF8014D
:10284000808189830E5F1F4FE4CF2801F2E04F0E95
:10285000511CF801C080D180692D70E036FC02C0A7
:102860006FEF7FEFC6010E9453154C018201D5CF57
:10287000B70180E290E00E945E152A9428141904A2
:1028800009F0B0F7CECFF60137FC859137FE819184
:102890006F01B70190E00E945E1551105A94F1E06B
:1028A0008F1A9108BFCF843619F0893609F077C0A6
:1028B000F80137FE6BC060817181828193810C5F6A
:1028C0001F4FF32DFF763F2E97FF09C090958095FF
:1028D000709561957F4F8F4F9F4F689437F82AE02E
:1028E00030E0A5010E948E15C82ECA188C2C432CEE
:1028F00036FE0CC0E89440F8C91440F434FE05C01C
:1029000032FC03C0F32DFE7E4F2E892C44FE95C071
:10291000FE01EC0DF11D8081803309F087C0242D6C
:10292000297E422E842D8870582E43FC95C040FE8F
:102930008FC09C2C821418F42C0C922C981844FEF6
:1029400091C0B70180E390E00E945E1542FE09C08D
:1029500088E790E041FE02C088E590E0B7010E9460
:102960005E15C91408F48AC0CA94D12C9FEFC91A05
:10297000D90ACA0CDB1CF60182916F01B70190E005
:102980000E945E15AC14BD04B1F74FCF6081718118
:10299000072E000C880B990B0E5F1F4F92CFD32C84
:1029A000E894D4F82AE030E0853739F1232D297FE7
:1029B000D22E8F3601F148F48835A9F0F7018681CF
:1029C00097812B96E2E10C940816803749F08837FE
:1029D000A9F7D4FE02C06894D2F820E130E00DC01F
:1029E0006894D4F8F6CF34FE03C0822F8660D82EC8
:1029F00020E132E002C028E030E0F801D7FE0FC04D
:102A000060817181828193810C5F1F4FA5010E94BB
:102A10008E15C82ECA183D2CE89437F867CF608110
:102A2000718190E080E00E5F1F4FF0CF42FC02C04A
:102A3000839478CF8394839475CF842D867809F41A
:102A400071CFF6CFB70180E290E00E945E158394CB
:102A50008214C0F3512C73CF522C5818821408F4EE
:102A60006ECFF8CF842D867809F47BCF8BE241FEC0
:102A700080E247FC8DE2B70190E071CFB70180E3BF
:102A800090E00E945E159A946CCF8FEF9FEF99CFE4
:102A9000FC010590615070400110D8F78095909529
:102AA0008E0F9F1F0895FC0161507040019001102E
:102AB000D8F7809590958E0F9F1F08950F931F93C1
:102AC000CF93DF93182F092FEB018B8181FD09C074
:102AD0001FEF0FEF812F902FDF91CF911F910F915B
:102AE000089582FF14C02E813F818C819D8128171B
:102AF00039073CF4E881F981CF01019699838883F5
:102B000010838E819F8101969F838E83E3CFE8851A
:102B1000F985812F0995892BA1F3DACFFA01AA272C
:102B2000283051F1203181F1E8946F936E7F6E5F10
:102B30007F4F8F4F9F4FAF4FB1E03ED0B4E03CD0BE
:102B4000670F781F891F9A1FA11D680F791F8A1FA1
:102B5000911DA11D6A0F711D811D911DA11D20D008
:102B600009F468943F912AE0269F11243019305DC2
:102B70003193DEF6CF010895462F4770405D4193B3
:102B8000B3E00FD0C9F7F6CF462F4F70405D4A3300
:102B900018F0495D31FD4052419302D0A9F7EACFC8
:102BA000B4E0A6959795879577956795BA95C9F7F7
:102BB00000976105710508959B01AC010A2E0694EA
:102BC0005795479537952795BA95C9F7620F731FA3
:102BD000841F951FA01D08952F923F924F925F92E0
:102BE0006F927F928F929F92AF92BF92CF92DF921D
:102BF000EF92FF920F931F93CF93DF93CDB7DEB782
:102C0000CA1BDB0B0FB6F894DEBF0FBECDBF099415
:102C10002A88398848885F846E847D848C849B846C
:102C2000AA84B984C884DF80EE80FD800C811B817A
:102C3000AA81B981CE0FD11D0FB6F894DEBF0FBEA9
:102C4000CDBFED01089511E0C9E7D1E004C0FE0158
:102C50000E941C132196CA37D107C9F7F894FFCFF9
:102C60002B042B0441542B434950534855540061C5
:102C7000696F5F65437173383450524C425431660A
:102C800043514F7144314479657A4D5A4448390073
:102C900041545F4D455445525F303032004142430C
:102CA000444546004D5154540041545F4D455445F0
:102CB000525F3030322F66656564732F76616C76B3
:102CC00065737461747573320041545F4D455445AA
:102CD000525F3030322F66656564732F746F746194
:102CE0006C697A6572320041545F4D455445525FBC
:102CF0003030322F66656564732F76616C7665724D
:102D000065716B657932004950205044504445410B
:102D1000435400495020434F4E46470054435020EF
:102D2000434C4F53454400434F4E4E454354204F70
:102D30004B004950205354415455530049502047AB
:102D4000505253414354004950205354415254006F
:102D5000495020494E495449414C0041542B434964
:102D60005053544154555300434F4E4E4543545FC6
:102D70004641494C004F4B0D0A0D0A434F4E4E45FC
:102D80004354003138383300696F2E6164616672D4
:102D90007569742E636F6D0041542B43494653523D
:102DA0000041542B43494943520041542B4353544F
:102DB000543D22494E5445524E4554222C22222C39
:102DC00022220041542B4349504D4F44453F00417E
:102DD000542B4349504D55583D300041542B4349E5
:102DE0005052584745543D310041542B43524547BA
:102DF0003F0041542B43535100415445300045524C
:102E0000524F520041542B4353434C4B3D320041EF
:102E1000542B43495052584745543D322C313030A1
:102E2000004F4B00000000008402E4011102EC029C
:102E3000420220023402000000005C04E401F104BC
:102E40003A04B804D00444040D0A000D0A52656324
:102E500065697665642047534D20726573706F6EA7
:102E6000736520313D3E20000D0A52656365697629
:102E700065642047534D20726573706F6E736520D3
:102E80003D3E2000257325386C75002573204F507A
:102E9000454E454400257320434C4F53454400455F
:102EA00052524F52003E0041542B43495053454E1D
:102EB000440053454E44204641494C0053454E443E
:102EC000204F4B002B435245473A20302C35002BE6
:102ED000435245473A20302C310041542B4349504E
:102EE00053544152543D22544350222C22257322E4
:102EF0002C22257322000D0A52656365697665648C
:102F00002047534D20726573706F6E736520323D9C
:102F10003E20004F4E004F4646004F50454E004366
:102F20004C4F53450062446174615570646174652F
:102F3000203D3E200056616C7665537473203D3E03
:022F400020006F
:107800000C94343C0C94513C0C94513C0C94513CE1
:107810000C94513C0C94513C0C94513C0C94513CB4
:107820000C94513C0C94513C0C94513C0C94513CA4
:107830000C94513C0C94513C0C94513C0C94513C94
:107840000C94513C0C94513C0C94513C0C94513C84
:107850000C94513C0C94513C0C94513C0C94513C74
:107860000C94513C0C94513C11241FBECFEFD8E036
:10787000DEBFCDBF11E0A0E0B1E0ECE9FFE702C060
:1078800005900D92A230B107D9F712E0A2E0B1E065
:1078900001C01D92AD30B107E1F70E942D3D0C945F
:1078A000CC3F0C94003C982F959595959595959582
:1078B000905D8F708A307CF0282F295A8091C0000B
:1078C00085FFFCCF9093C6008091C00085FFFCCF60
:1078D0002093C6000895282F205DF0CF982F809127
:1078E000C00085FFFCCF9093C6000895EF92FF92F1
:1078F0000F931F93EE24FF2487018091C00087FD22
:1079000017C00894E11CF11C011D111D81E4E8164B
:1079100082E4F8068FE0080780E0180770F3E09132
:107920000401F091050109958091C00087FFE9CF1E
:107930008091C6001F910F91FF90EF9008950E94D3
:10794000763C982F8091C00085FFFCCF9093C600B5
:1079500091362CF490330CF09053892F089597555D
:10796000892F08951F930E949F3C182F0E949F3CCF
:107970001295107F810F1F9108951F93182F882350
:1079800021F00E94763C1150E1F71F9108951F935A
:10799000182F0E94763C803249F0809103018F5F5E
:1079A000809303018530C1F01F9108958091C0003C
:1079B00085FFFCCF84E18093C6008091C00085FFE5
:1079C000FCCF1093C6008091C00085FFFCCF80E102
:1079D0008093C6001F910895E0910401F091050184
:1079E00009951F9108950E94763C803241F0809164
:1079F00003018F5F80930301853081F008958091AA
:107A0000C00085FFFCCF84E18093C6008091C00058
:107A100085FFFCCF80E18093C6000895E0910401CA
:107A2000F09105010995089540E951E08823A1F0FE
:107A30002D9A28EE33E0FA013197F1F721503040CA
:107A4000D1F72D9828EE33E0FA013197F1F7215064
:107A50003040D1F7815061F708953F924F925F9285
:107A60006F927F928F929F92AF92BF92CF92DF924E
:107A7000EF92FF920F931F93CF93DF93000080E16B
:107A80008093C4001092C50088E18093C10086E015
:107A90008093C2005098589A259A81E00E94143D24
:107AA00024E1F22E9EE1E92E85E9D82E0FE0C02ECA
:107AB00010E1B12EAA24A394B1E49B2EA6E58A2E50
:107AC000F2E57F2EE0E26E2E79E4572E63E5462E36
:107AD00050E5352E0E94763C8033B1F18133B9F107
:107AE000803409F46FC0813409F476C0823409F41B
:107AF00085C0853409F488C0803531F1823521F1A3
:107B0000813511F1853509F485C0863509F48DC0BC
:107B1000843609F496C0843709F403C1853709F423
:107B200072C1863709F466C0809103018F5F80932C
:107B30000301853079F6E0910401F0910501099582
:107B40000E94763C803351F60E94F33CC3CF0E94E2
:107B5000763C803249F78091C00085FFFCCFF092DF
:107B6000C6008091C00085FFFCCF9092C600809136
:107B7000C00085FFFCCF8092C6008091C00085FFC9
:107B8000FCCF7092C6008091C00085FFFCCF609250
:107B9000C6008091C00085FFFCCF5092C600809146
:107BA000C00085FFFCCF4092C6008091C00085FFD9
:107BB000FCCF3092C6008091C00085FFFCCFB09210
:107BC000C60088CF0E94763C863808F4BDCF0E945C
:107BD000763C0E94F33C7ECF0E94763C803809F4CC
:107BE0009CC0813809F40BC1823809F43CC1883942
:107BF00009F48FC080E00E94C73C6CCF84E10E94F2
:107C0000BD3C0E94F33C66CF85E00E94BD3C0E94D3
:107C1000F33C60CF0E94763C809306010E94763C44
:107C2000809307010E94F33C55CF0E94763C80333D
:107C300009F41DC183E00E94BD3C80E00E94C73C66
:107C400049CF0E94763C809309020E94763C809343
:107C5000080280910C028E7F80930C020E94763C79
:107C6000853409F415C18091080290910902892B8D
:107C700089F000E010E00E94763CF801E85FFE4FDA
:107C800080830F5F1F4F80910802909109020817AF
:107C9000190788F30E94763C803209F045CF809125
:107CA0000C0280FF01C16091060170910701660F0F
:107CB000771F7093070160930601A0910802B091AD
:107CC00009021097C9F0E8E0F1E09B01AD014E0F09
:107CD0005F1FF999FECF32BD21BD819180BDFA9A17
:107CE000F99A2F5F3F4FE417F50799F76A0F7B1F4B
:107CF00070930701609306018091C00085FFFCCF5F
:107D0000F092C6008091C00085FFFCCFB092C60003
:107D1000E1CE83E00E94C73CDDCE82E00E94C73CFA
:107D2000D9CE0E94763C809309020E94763C8093D3
:107D300008028091060190910701880F991F909386
:107D40000701809306010E94763C853409F4A6C0A1
:107D500080910C028E7F80930C020E94763C8032D0
:107D600009F0B8CE8091C00085FFFCCFF092C6002C
:107D7000609108027091090261157105B9F140E046
:107D800050E080910C02A82FA170B82FB27011C0E2
:107D9000BB2309F45CC0E0910601F0910701319624
:107DA000F0930701E09306014F5F5F4F46175707B7
:107DB000E8F4AA2369F3F999FECF209106013091E6
:107DC000070132BD21BDF89A90B58091C00085FFB2
:107DD000FCCF9093C6002F5F3F4F30930701209355
:107DE00006014F5F5F4F4617570718F38091C00099
:107DF00085FDE5CE8091C00085FFF8CFE0CE81E023
:107E00000E94C73C67CE0E94763C803209F08CCE3F
:107E10008091C00085FFFCCFF092C6008091C00029
:107E200085FFFCCFE092C6008091C00085FFFCCFAB
:107E3000D092C6008091C00085FFFCCFC092C600E2
:107E40008091C00085FFFCCFB092C60043CEE09188
:107E50000601F091070194918091C00085FFFCCF4D
:107E60009093C6009CCF80E10E94C73C33CE0E9415
:107E7000763C0E94763C182F0E94763C112309F430
:107E800083C0113009F484C08FE00E94C73C22CE29
:107E900080910C02816080930C02E5CE80910C02EF
:107EA000816080930C0259CF809107018823880F4D
:107EB000880B8A2180930B02809106019091070123
:107EC000880F991F90930701809306018091080203
:107ED00080FF09C080910802909109020196909359
:107EE000090280930802F894F999FECF1127E091D6
:107EF0000601F0910701C8E0D1E08091080290915D
:107F00000902103091F40091570001700130D9F34B
:107F100003E000935700E89500915700017001308D
:107F2000D9F301E100935700E89509901990009169
:107F3000570001700130D9F301E000935700E89534
:107F40001395103498F011270091570001700130FB
:107F5000D9F305E000935700E895009157000170B0
:107F60000130D9F301E100935700E895329602976A
:107F700009F0C7CF103011F00296E5CF112480919F
:107F8000C00085FFB9CEBCCE8EE10E94C73CA2CD19
:0C7F900085E90E94C73C9ECDF894FFCF0D
:027F9C00800063
:040000030000780081
:00000001FF
